{
  "contractName": "TodoList",
  "abi": [
    {
      "constant": true,
      "inputs": [
        {
          "name": "",
          "type": "uint256"
        }
      ],
      "name": "tasks",
      "outputs": [
        {
          "name": "id",
          "type": "uint256"
        },
        {
          "name": "content",
          "type": "string"
        },
        {
          "name": "completed",
          "type": "bool"
        }
      ],
      "payable": false,
      "stateMutability": "view",
      "type": "function",
      "signature": "0x8d977672"
    },
    {
      "constant": true,
      "inputs": [],
      "name": "taskCount",
      "outputs": [
        {
          "name": "",
          "type": "uint256"
        }
      ],
      "payable": false,
      "stateMutability": "view",
      "type": "function",
      "signature": "0xb6cb58a5"
    },
    {
      "inputs": [],
      "payable": false,
      "stateMutability": "nonpayable",
      "type": "constructor",
      "signature": "constructor"
    },
    {
      "anonymous": false,
      "inputs": [
        {
          "indexed": false,
          "name": "id",
          "type": "uint256"
        },
        {
          "indexed": false,
          "name": "content",
          "type": "string"
        },
        {
          "indexed": false,
          "name": "completed",
          "type": "bool"
        }
      ],
      "name": "TaskCreated",
      "type": "event",
      "signature": "0x05d0fb833127fc08168556d0e7ca9554fc3f6bc843b3b7d2bf1c35aea6bab660"
    },
    {
      "anonymous": false,
      "inputs": [
        {
          "indexed": false,
          "name": "id",
          "type": "uint256"
        },
        {
          "indexed": false,
          "name": "content",
          "type": "string"
        },
        {
          "indexed": false,
          "name": "completed",
          "type": "bool"
        }
      ],
      "name": "TaskCompleted",
      "type": "event",
      "signature": "0xbc9b38ef3e28b52270aeb098b26eb25282dbc554fc9e8104a6b787bfa8f75240"
    },
    {
      "constant": false,
      "inputs": [
        {
          "name": "_content",
          "type": "string"
        }
      ],
      "name": "createTask",
      "outputs": [],
      "payable": false,
      "stateMutability": "nonpayable",
      "type": "function",
      "signature": "0x111002aa"
    },
    {
      "constant": false,
      "inputs": [
        {
          "name": "id",
          "type": "uint256"
        }
      ],
      "name": "completeTask",
      "outputs": [],
      "payable": false,
      "stateMutability": "nonpayable",
      "type": "function",
      "signature": "0xe1e29558"
    }
  ],
  "bytecode": "0x60806040526000805534801561001457600080fd5b50610089606060405190810160405280602881526020017f577269746520796f757220666972737420457468657265756d20736d6172742081526020017f636f6e747261637400000000000000000000000000000000000000000000000081525061008e640100000000026401000000009004565b610279565b600080815480929190600101919050555060606040519081016040528060005481526020018281526020016000151581525060016000805481526020019081526020016000206000820151816000015560208201518160010190805190602001906100fa9291906101d4565b5060408201518160020160006101000a81548160ff0219169083151502179055509050507f05d0fb833127fc08168556d0e7ca9554fc3f6bc843b3b7d2bf1c35aea6bab660600054826000604051808481526020018060200183151515158152602001828103825284818151815260200191508051906020019080838360005b8381101561019557808201518184015260208101905061017a565b50505050905090810190601f1680156101c25780820380516001836020036101000a031916815260200191505b5094505050505060405180910390a150565b828054600181600116156101000203166002900490600052602060002090601f016020900481019282601f1061021557805160ff1916838001178555610243565b82800160010185558215610243579182015b82811115610242578251825591602001919060010190610227565b5b5090506102509190610254565b5090565b61027691905b8082111561027257600081600090555060010161025a565b5090565b90565b610794806102886000396000f3fe608060405260043610610062576000357c0100000000000000000000000000000000000000000000000000000000900463ffffffff168063111002aa146100675780638d9776721461012f578063b6cb58a5146101f5578063e1e2955814610220575b600080fd5b34801561007357600080fd5b5061012d6004803603602081101561008a57600080fd5b81019080803590602001906401000000008111156100a757600080fd5b8201836020820111156100b957600080fd5b803590602001918460018302840111640100000000831117156100db57600080fd5b91908080601f016020809104026020016040519081016040528093929190818152602001838380828437600081840152601f19601f82011690508083019250505050505050919291929050505061025b565b005b34801561013b57600080fd5b506101686004803603602081101561015257600080fd5b81019080803590602001909291905050506103a1565b604051808481526020018060200183151515158152602001828103825284818151815260200191508051906020019080838360005b838110156101b857808201518184015260208101905061019d565b50505050905090810190601f1680156101e55780820380516001836020036101000a031916815260200191505b5094505050505060405180910390f35b34801561020157600080fd5b5061020a610470565b6040518082815260200191505060405180910390f35b34801561022c57600080fd5b506102596004803603602081101561024357600080fd5b8101908080359060200190929190505050610476565b005b600080815480929190600101919050555060606040519081016040528060005481526020018281526020016000151581525060016000805481526020019081526020016000206000820151816000015560208201518160010190805190602001906102c792919061069f565b5060408201518160020160006101000a81548160ff0219169083151502179055509050507f05d0fb833127fc08168556d0e7ca9554fc3f6bc843b3b7d2bf1c35aea6bab660600054826000604051808481526020018060200183151515158152602001828103825284818151815260200191508051906020019080838360005b83811015610362578082015181840152602081019050610347565b50505050905090810190601f16801561038f5780820380516001836020036101000a031916815260200191505b5094505050505060405180910390a150565b6001602052806000526040600020600091509050806000015490806001018054600181600116156101000203166002900480601f0160208091040260200160405190810160405280929190818152602001828054600181600116156101000203166002900480156104535780601f1061042857610100808354040283529160200191610453565b820191906000526020600020905b81548152906001019060200180831161043657829003601f168201915b5050505050908060020160009054906101000a900460ff16905083565b60005481565b61047e61071f565b600160008381526020019081526020016000206060604051908101604052908160008201548152602001600182018054600181600116156101000203166002900480601f0160208091040260200160405190810160405280929190818152602001828054600181600116156101000203166002900480156105405780601f1061051557610100808354040283529160200191610540565b820191906000526020600020905b81548152906001019060200180831161052357829003601f168201915b505050505081526020016002820160009054906101000a900460ff16151515158152505090506060604051908101604052808381526020018260200151815260200160011515815250600160008481526020019081526020016000206000820151816000015560208201518160010190805190602001906105c292919061069f565b5060408201518160020160006101000a81548160ff0219169083151502179055509050507fbc9b38ef3e28b52270aeb098b26eb25282dbc554fc9e8104a6b787bfa8f752408282602001516001604051808481526020018060200183151515158152602001828103825284818151815260200191508051906020019080838360005b8381101561065f578082015181840152602081019050610644565b50505050905090810190601f16801561068c5780820380516001836020036101000a031916815260200191505b5094505050505060405180910390a15050565b828054600181600116156101000203166002900490600052602060002090601f016020900481019282601f106106e057805160ff191683800117855561070e565b8280016001018555821561070e579182015b8281111561070d5782518255916020019190600101906106f2565b5b50905061071b9190610743565b5090565b60606040519081016040528060008152602001606081526020016000151581525090565b61076591905b80821115610761576000816000905550600101610749565b5090565b9056fea165627a7a723058205fd80a06db2cfcfe7339a8821c8ab68ecd19b2927b3bf97782e5f5fe28bfeb320029",
  "source": "// SPDX-License-Identifier: MIT\npragma solidity >=0.4.21 <0.7.0;\n\ncontract TodoList {\n    // \"state variable\". it's written to the blockchain\n    // the keyword \"public\" creates a getter function for the variable\n    uint public taskCount = 0;\n\n    // struct is how you define custom data types\n    struct Task {\n        uint id;\n        string content;\n        bool completed;\n    }\n\n    // \"mapping\" is like an associative array or Map in Haskell\n    mapping(uint => Task) public tasks;\n\n    constructor() public {\n        createTask(\"Write your first Ethereum smart contract\");\n    }\n\n    // Create an event so that consumers can subscribe to it\n    event TaskCreated(uint id, string content, bool completed);\n\n    function createTask(string memory _content) public {\n        taskCount++;\n\n        tasks[taskCount] = Task(taskCount, _content, false);\n\n        emit TaskCreated(taskCount, _content, false);\n    }\n\n    event TaskCompleted(uint id, string content, bool completed);\n\n    function completeTask(uint id) public {\n        Task memory oldTask = tasks[id];\n\n        tasks[id] = Task(id, oldTask.content, true);\n\n        emit TaskCompleted(id, oldTask.content, true);\n    }\n}\n",
  "sourcePath": "/Users/glebdianov/code/ethereum-todo-list/contracts/TodoList.sol",
  "compiler": {
    "name": "solc",
    "version": "0.5.0+commit.1d4f565a.Emscripten.clang"
  },
  "schemaVersion": "3.0.1",
  "updatedAt": "2021-10-04T12:56:00.985Z",
  "devdoc": {
    "methods": {}
  },
  "userdoc": {
    "methods": {}
  }
}